:020000040800F2
:10000000005000207D0C0008050B00080B0B0008B9
:10001000110B0008170B00081D0B00080000000062
:10002000000000000000000000000000230B00089A
:100030002F0B0008000000003B0B0008470B0008D6
:10004000C50C0008C50C0008C50C0008C50C00084C
:10005000C50C0008C50C0008C50C0008C50C00083C
:10006000C50C0008C50C0008C50C0008550B00089D
:10007000C50C0008C50C0008C50C0008C50C00081C
:10008000C50C0008C50C0008C50C0008C50C00080C
:10009000C50C0008C50C0008C50C0008C50C0008FC
:1000A000C50C0008C50C0008C50C0008C50C0008EC
:1000B000C50C0008C50C0008C50C0008C50C0008DC
:1000C000C50C0008C50C0008C50C0008C50C0008CC
:1000D000C50C0008C50C0008C50C0008C50C0008BC
:1000E000C50C0008C50C0008C50C00080000000085
:1000F0000000000000000000000000000000000000
:0C01000000000000000000005FF808F1A3
:10010C0010B5054C237833B9044B13B10448AFF345
:10011C0000800123237010BD70000020000000003F
:10012C00E447000808B5034B1BB103490348AFF380
:10013C00008008BD0000000074000020E4470008A7
:10014C0080B586B000AFF860B9607A60FB68012BAF
:10015C0003D0FB68022B15D029E07B689AB24FF0D4
:10016C00FF33B9681A4803F0F1F90346FB75FB7DC0
:10017C00002B24D003F06AFB034605221A604FF0D3
:10018C00FF3320E07B689AB24FF0FF33B968104818
:10019C0003F0DCF90346FB75FB7D002B11D003F05B
:1001AC0055FB034605221A604FF0FF330BE003F0BA
:1001BC004DFB034609221A604FF0FF3303E000BFEA
:1001CC0000E000BF7B6818461837BD4680BD00BFF5
:1001DC005401002080B594B002AF00F06FFD00F028
:1001EC0079F900F0A7FA00F087FA00F0C3F900F0F3
:1001FC002BFA00F057FA002387F84630002387F8D3
:10020C003430002387F835300D2387F83630082337
:10021C0087F83730002387F8473037E097F84730B6
:10022C00A84AD35C9BB25B0099B207F134024FF041
:10023C00FF3300930423A44802F05CF8034687F8CC
:10024C003B3097F83B30002B14D197F847304833AC
:10025C003B44012203F8182C97F84630013387F8F9
:10026C00463097F84730974AD35C1946002000F087
:10027C00A3FA06E097F8473048333B44002203F8D2
:10028C00182C97F84730013387F8473097F84730E8
:10029C00032BC3D997F8463019468C4803F008FB5A
:1002AC0040F6C3733B6407F12003042219468848C7
:1002BC0000F068FF4FF0FF31854800F05DFE07F15C
:1002CC00200304221946824800F05CFF4FF0FF31F6
:1002DC007F4800F051FE002387F8473047E097F83D
:1002EC00473097F847109B0048333B4453F8282C71
:1002FC008B0048333B4443F8482C97F847309B001D
:10030C0048333B4453F8282C97F84730396C8A1AF9
:10031C009B0048333B4443F8382C97F847309B00FC
:10032C0048333B4453F8382C13465B001344DA0033
:10033C00D11A97F847303A6CB1FBF2F29B00483374
:10034C003B4443F8382C97F847309B0048333B44E8
:10035C0053F8382C97F8473002329B0048333B4413
:10036C0043F8382C97F84730013387F8473097F823
:10037C00472097F846309A42B1D3002387F847308C
:10038C0014E097F847304F4AD25C97F847309B00FF
:10039C0048333B4453F8383CDBB21946104600F066
:1003AC00EBF997F84730013387F8473097F8472037
:1003BC0097F846309A42E4D307F1200304221946F9
:1003CC00434800F0DFFE4FF0FF31414800F0D4FD10
:1003DC00002387F847306DE097F847309B0048338F
:1003EC003B4453F8283C3A6CD31AFB63FA6B134624
:1003FC005B001344DA00D21A3B6CB2FBF3F3FB63E1
:10040C00FB6B0233FB6397F847309B0048333B444C
:10041C0053F8383CFA6B9A4247D097F847309B0018
:10042C0048333B4453F8282C97F847309B0048330B
:10043C003B4453F8483C323B9A4210D397F8473030
:10044C009B0048333B4453F8282C97F847309B00CB
:10045C0048333B4453F8483C32339A4225D997F8F9
:10046C0047309B0048333B44FA6B43F8382C97F8E1
:10047C0047309B0048333B4453F8383CDAB297F88A
:10048C0047301049CB5C1946104600F095F997F8A7
:10049C00473097F847109B0048333B4453F8282CBF
:1004AC008B0048333B4443F8482C97F847300133D2
:1004BC0087F8473097F8472097F846309A428BD305
:1004CC007AE700BF5448000800010020FC470008F0
:1004DC008C00002080B594B000AF07F128032822CF
:1004EC000021184603F0DCF907F1140300221A600E
:1004FC005A609A60DA601A613B1D00221A605A60D9
:10050C009A60DA600223BB620123BB631023FB6396
:10051C0000237B6407F12803184602F043FA0346D4
:10052C00002B01D000F0CCF90F237B610023BB61C1
:10053C000023FB6100233B6200237B6207F1140361
:10054C000021184602F0B0FC0346002B01D000F04D
:10055C00B7F902237B600023FB603B1D184602F0B9
:10056C0031FE0346002B01D000F0AAF900BF503732
:10057C00BD4680BD80B584B000AF3B1D00221A6023
:10058C005A609A602E4B2F4A1A602D4B4FF4807292
:10059C009A602B4B01221A73294B00221A75284B97
:1005AC004FF46022DA61264B00225A60244B04225D
:1005BC001A61234800F008FC0346002B01D000F020
:1005CC007FF900237B600123BB600523FB603B1D8F
:1005DC0019461B4800F0D0FE0346002B01D000F05A
:1005EC006FF901237B600223BB603B1D1946144845
:1005FC0000F0C2FE0346002B01D000F061F903238A
:10060C007B600323BB603B1D19460D4800F0B4FE14
:10061C000346002B01D000F053F907237B60042321
:10062C00BB603B1D1946064800F0A6FE0346002B96
:10063C0001D000F045F900BF1037BD4680BD00BFAA
:10064C008C0000200024014080B500AF124B134AEF
:10065C001A60114B124A5A600F4B00229A600E4BD3
:10066C000022DA600C4B4FF480421A610A4B0022D4
:10067C005A61094B00229A61074B0022DA61064B42
:10068C0000221A62044801F0F1FC0346002B01D051
:10069C0000F016F900BF80BD00010020005400409E
:1006AC00A086010080B500AF114B124A1A60104BA6
:1006BC004FF4E1325A600E4B00229A600C4B002230
:1006CC00DA600B4B00221A61094B0C225A61084B61
:1006DC0000229A61064B0022DA61054802F0DEFE28
:1006EC000346002B01D000F0EBF800BF80BD00BF2B
:1006FC00540100200044004080B582B000AF0C4B88
:10070C005B690B4A43F001035361094B5B6903F0CE
:10071C0001037B607B68002200210B2001F0FDF8B7
:10072C000B2001F016F900BF0837BD4680BD00BF95
:10073C000010024080B483B000AF0E4B9B690D4A91
:10074C0043F0040393610B4B9B6903F004037B6040
:10075C007B68084B9B69074A43F008039361054B80
:10076C009B6903F008033B603B6800BF0C37BD4638
:10077C0080BC70470010024080B584B000AF0346C7
:10078C000A46FB711346BB710123FB730BE0FA792C
:10079C00FB7B1146184600F00FF80A2000F0F0FA27
:1007AC00FB7B0133FB73FA7BBB799A42EFD900BF19
:1007BC0000BF1037BD4680BD80B588B002AF034680
:1007CC000A46FB711346BB71FB79002B2AD100231F
:1007DC00FB7513E0FB7D5B08DAB2FB7D0132D2B214
:1007EC0018333B4403F8102CFB7D013318333B4486
:1007FC00002203F8102CFB7D0233FB75FB7D092BCB
:10080C00E8D90C23BB74AA23FB74BB799BB25B00A5
:10081C0099B207F108024FF0FF3300930C232548DF
:10082C0001F068FDFB79002B40D0FB79192B3DD8EA
:10083C000023BB7513E0BB7D5B08DAB2BB7D0132D4
:10084C00D2B218333B4403F8102CBB7D0133183360
:10085C003B44002203F8102CBB7D0233BB75BB7DDF
:10086C00092BE8D9FB79013B134AD35C013B0122EC
:10087C0002FA03F1FB79013B104AD35C5B00013BAC
:10088C00CAB218333B4403F8102C0C23BB74AA23B4
:10089C00FB74BB799BB25B0099B207F108024FF075
:1008AC00FF3300930C23034801F024FD00BF1837DD
:1008BC00BD4680BD000100201C48000838480008D7
:1008CC0080B400AF72B600BFFEE7000080B485B004
:1008DC0000AF154B9B69144A43F001039361124B13
:1008EC009B6903F00103BB60BB680F4BDB690E4ACD
:1008FC0043F08053D3610C4BDB6903F080537B6076
:10090C007B680A4B5B68FB60FB6823F0E063FB6071
:10091C00FB6843F00073FB60044AFB68536000BF44
:10092C001437BD4680BC70470010024000000140E7
:10093C0080B588B000AF786007F1100300221A6010
:10094C005A609A60DA607B681B68284A934249D1E6
:10095C00274B9B69264A43F400739361244B9B6994
:10096C0003F40073FB60FB68214B9B69204A43F046
:10097C00040393611E4B9B6903F00403BB60BB68CB
:10098C008B233B6103237B6107F110031946194844
:10099C0001F0E8F9184B194A1A60174B00225A60FB
:1009AC00154B00229A60144B8022DA60124B4FF4E4
:1009BC0000721A61104B4FF400625A610E4B2022E8
:1009CC009A610D4B0022DA610B4800F0DDFF034603
:1009DC00002B01D0FFF774FF7B68074A1A62064AA6
:1009EC007B68536200BF2037BD4680BD00240140A8
:1009FC000010024000080140BC000020080002402A
:100A0C0080B588B000AF786007F1100300221A603F
:100A1C005A609A60DA607B681B68154A934223D14E
:100A2C00144B9B69134A43F008039361114B9B6968
:100A3C0003F00803FB60FB68C0233B6112237B615E
:100A4C000323FB6107F1100319460B4801F08AF9E7
:100A5C00084BDB69074A43F40013D361054BDB6990
:100A6C0003F40013BB60BB6800BF2037BD4680BDDC
:100A7C000054004000100240000C014080B588B0CA
:100A8C0000AF786007F1100300221A605A609A6078
:100A9C00DA607B681B68154A934223D1144BDB69DF
:100AAC00134A43F40033D361114BDB6903F4003375
:100ABC00FB60FB680E4B9B690D4A43F0040393618A
:100ACC000B4B9B6903F00403BB60BB6804233B61C5
:100ADC0012237B610323FB6107F1100319460548C0
:100AEC0001F040F900BF2037BD4680BD00440040F6
:100AFC00001002400008014080B400AFFEE780B453
:100B0C0000AFFEE780B400AFFEE780B400AFFEE7B5
:100B1C0080B400AFFEE780B400AF00BFBD4680BC20
:100B2C00704780B400AF00BFBD4680BC704780B436
:100B3C0000AF00BFBD4680BC704780B500AF00F071
:100B4C0003F900BF80BD000080B500AF024800F083
:100B5C00D5FF00BF80BD00BFBC00002080B586B0B3
:100B6C0000AFF860B9607A6000237B610AE0AFF3F4
:100B7C0000800146BB685A1CBA60CAB21A707B6905
:100B8C0001337B617A697B689A42F0DB7B6818469B
:100B9C001837BD4680BD80B483B000AF78604FF08D
:100BAC00FF3318460C37BD4680BC704780B483B009
:100BBC0000AF786039603B684FF400525A600023F4
:100BCC0018460C37BD4680BC704780B483B000AF6C
:100BDC007860012318460C37BD4680BC704780B442
:100BEC0085B000AFF860B9607A60002318461437FE
:100BFC00BD4680BC7047000080B586B000AF786001
:100C0C00144A154BD31A7B617B693B61134B1B68F0
:100C1C00002B02D1114B124A1A60104B1A687B68D8
:100C2C0013443A699A4207D202F010FE03460C2292
:100C3C001A604FF0FF3309E0084B1B68FB60074B51
:100C4C001A687B681344054A1360FB68184618370A
:100C5C00BD4680BD00500020000400009C01002017
:100C6C00B801002080B400AF00BFBD4680BC704707
:100C7C00FFF7F8FF0B480C490C4A002302E0D4584C
:100C8C00C4500433C4188C42F9D3094A094C0023CC
:100C9C0001E013600432A242FBD302F0DDFDFFF74A
:100CAC0099FA7047000000207000002038490008B5
:100CBC0070000020B4010020FEE7000080B500AFFA
:100CCC00084B1B68074A43F010031360032000F025
:100CDC0019FE0F2000F008F8FFF7F8FD0023184666
:100CEC0080BD00BF0020024080B582B000AF7860AC
:100CFC00124B1A68124B1B7819464FF47A73B3FBDC
:100D0C00F1F3B2FBF3F3184600F031FE0346002B6F
:100D1C0001D001230EE07B680F2B0AD800227968E2
:100D2C004FF0FF3000F0F9FD064A7B68136000239A
:100D3C0000E0012318460837BD4680BD00000020A6
:100D4C00080000200400002080B400AF054B1B7885
:100D5C001A46054B1B681344034A136000BFBD467B
:100D6C0080BC704708000020A001002080B400AFB8
:100D7C00024B1B681846BD4680BC7047A001002082
:100D8C0080B584B000AF7860FFF7F0FFB8607B6887
:100D9C00FB60FB68B3F1FF3F05D00A4B1B781A468A
:100DAC00FB681344FB6000BFFFF7E0FF0246BB6823
:100DBC00D31AFA689A42F7D800BF00BF1037BD4665
:100DCC0080BD00BF0800002080B586B000AF786001
:100DDC000023FB7500233B610023BB600023FB60F9
:100DEC007B68002B01D10123BEE07B689B68002B44
:100DFC007B689B6A002B09D17B680022DA627B68D6
:100E0C00002283F824207868FFF792FD786800F0C0
:100E1C0005FC0346FB757B689B6A03F01003002BF3
:100E2C0040F09980FB7D002B40F095807B689B6A9D
:100E3C0023F4885323F0020343F002027B689A6286
:100E4C007B685A687B68DB691A437B681B7B5B0099
:100E5C001343BA681343BB607B689B68B3F5807F10
:100E6C0003D07B689B68012B02D14FF4807300E0A8
:100E7C0000233A6913433B617B681B7D012B19D11D
:100E8C007B681B7B002B09D17B689B69013B5A0358
:100E9C003B69134343F400633B610BE07B689B6A43
:100EAC0043F020027B689A627B68DB6A43F00102A4
:100EBC007B68DA627B681B685B6823F469417B683A
:100ECC001B683A690A435A607B681B689A68284B0E
:100EDC0013407A681268B9680B4393607B689B680F
:100EEC00B3F5807F03D07B689B68012B04D17B68B2
:100EFC001B69013B1B05FB607B681B68DB6A23F4E9
:100F0C0070017B681B68FA680A43DA627B681B68AD
:100F1C009A68184B1340BA689A420BD17B6800222E
:100F2C00DA627B689B6A23F0030343F001027B685F
:100F3C009A6218E07B689B6A23F0120343F010025C
:100F4C007B689A627B68DB6A43F001027B68DA6239
:100F5C000123FB7507E07B689B6A43F010027B68FA
:100F6C009A620123FB75FB7D18461837BD4680BD80
:100F7C00FDF7E1FFFE0E1FFF90B587B000AF786064
:100F8C00396000237B610023FB6000233B61FFF78A
:100F9C00EDFE78617B681B689B6803F48073002B03
:100FAC000BD07B689B6A43F020027B689A627B685B
:100FBC00002283F824200123D3E07B681B685B6844
:100FCC0003F48073002B31D17B681B68DB6A03F45C
:100FDC007003002B2AD121E03B68B3F1FF3F1DD0F9
:100FEC003B68002B07D0FFF7C1FE02467B69D31A82
:100FFC003A689A4212D27B681B681B6803F00203A2
:10100C00002B0BD17B689B6A43F004027B689A62CD
:10101C007B68002283F824200323A2E07B681B68F2
:10102C001B6803F00203002BD6D070E04F4B1C68FA
:10103C00022002F07DF90346B4FBF3F27B681B68D7
:10104C0019694B4B0B40002B18D17B681B68D96876
:10105C00484B0B40002B11D17B681B681969464B20
:10106C000B40002B08D17B681B68D968434B0B40A5
:10107C00002B01D1142320E029231EE07B681B6880
:10108C0019693D4B0B40002B06D17B681B68D96856
:10109C003A4B0B40002B0DD07B681B681969384B01
:1010AC000B40002B08D17B681B68D968344B0B4074
:1010BC00002B01D1542300E0FC2302FB03F33B6122
:1010CC0021E03B68B3F1FF3F1AD03B68002B07D0FF
:1010DC00FFF74CFE02467B69D31A3A689A420FD24C
:1010EC00FB683A699A420BD97B689B6A43F004020D
:1010FC007B689A627B68002283F82420032330E00B
:10110C00FB680133FB60FB683A699A42D9D87B686B
:10111C001B686FF012021A607B689B6A43F40072C2
:10112C007B689A627B681B689B6803F46023B3F549
:10113C00602F15D17B681B7B002B11D17B689B6AC0
:10114C0023F480727B689A627B689B6A03F48053F9
:10115C00002B05D17B689B6A43F001027B689A6285
:10116C00002318461C37BD4690BD00BF0000002070
:10117C002449922424499200922449129224490031
:10118C004992240080B586B000AFF860B9607A60EF
:10119C000023FB75FB681B68644A934204D0FB6810
:1011AC001B68634A934206D1604B5B6803F470235F
:1011BC00002B40F0B380FB6893F82430012B01D155
:1011CC000223AEE0FB68012283F82420F86800F0CB
:1011DC00CBF90346FB75FB7D002B40F09A80FB6836
:1011EC009B6A23F4706323F0010343F48072FB6861
:1011FC009A62FB681B684E4A934205D14B4B5B6865
:10120C0003F47023002B15D1FB689B6A23F4801226
:10121C00FB689A62FB681B685B6803F48063002BB5
:10122C0026D0FB689B6A23F4405343F48052FB683E
:10123C009A621DE0FB689B6A43F48012FB689A6219
:10124C00FB681B68394A934204D0FB681B68384A18
:10125C0093420DD1354B5B6803F48063002B07D0B0
:10126C00FB689B6A23F4405343F48052FB689A62F8
:10127C00FB689B6A03F48053002B06D0FB68DB6A87
:10128C0023F00602FB68DA6202E0FB680022DA62F5
:10129C00FB68002283F82420FB681B6A254A9A62AB
:1012AC00FB681B6A244ADA62FB681B6A234A1A63CE
:1012BC00FB681B686FF002021A60FB681B689A6877
:1012CC00FB681B6842F480729A60FB68186AFB68C2
:1012DC001B684C331946BA687B6800F0AFFBFB689F
:1012EC001B689B6803F46023B3F5602F08D1FB687F
:1012FC001B689A68FB681B6842F4A0029A600FE0B6
:10130C00FB681B689A68FB681B6842F480129A6041
:10131C0006E0FB68002283F8242001E00123FB7522
:10132C00FB7D18461837BD4680BD00BF0024014028
:10133C0000280140AB1600082717000843170008C7
:10134C0080B483B000AF786000BF0C37BD4680BC62
:10135C00704780B483B000AF786000BF0C37BD46D7
:10136C0080BC704780B483B000AF786000BF0C378E
:10137C00BD4680BC7047000080B485B000AF78607B
:10138C0039600023FB730023BB607B6893F8243027
:10139C00012B01D10223DCE07B68012283F824209D
:1013AC003B685B68062B1CD87B681B68596B3B68D9
:1013BC005A6813469B001344053B1F2202FA03F3A1
:1013CC00DB4319403B6818683B685A6813469B001E
:1013DC001344053B00FA03F27B681B680A435A630B
:1013EC003CE03B685B680C2B1CD87B681B68196B5A
:1013FC003B685A6813469B001344233B1F2202FA96
:10140C0003F3DB4319403B6818683B685A68134682
:10141C009B001344233B00FA03F27B681B680A43CE
:10142C001A631BE07B681B68D96A3B685A681346D1
:10143C009B001344413B1F2202FA03F3DB43194088
:10144C003B6818683B685A6813469B001344413B41
:10145C0000FA03F27B681B680A43DA623B681B687C
:10146C00092B1CD97B681B68D9683B681A68134622
:10147C005B0013441E3B072202FA03F3DB431940C3
:10148C003B6898683B681A6813465B0013441E3B24
:10149C0000FA03F27B681B680A43DA6019E07B6888
:1014AC001B6819693B681A6813465B0013440722D2
:1014BC0002FA03F3DB4319403B6898683B681A68EF
:1014CC0013465B00134400FA03F27B681B680A4363
:1014DC001A613B681B68102B03D03B681B68112BEF
:1014EC0032D17B681B681D4A934225D17B681B68EF
:1014FC009B6803F40003002B26D17B681B689A6859
:10150C007B681B6842F400029A603B681B68102BD6
:10151C001AD1134B1B68134AA2FB03239A0C1346D4
:10152C009B0013445B00BB6002E0BB68013BBB60EB
:10153C00BB68002BF9D107E07B689B6A43F0200263
:10154C007B689A620123FB737B68002283F824205A
:10155C00FB7B18461437BD4680BC70470024014005
:10156C000000002083DE1B4380B584B000AF7860A0
:10157C000023FB600023BB607B681B689B6803F047
:10158C000103012B40D07B681B689A687B681B6841
:10159C0042F001029A601F4B1B681F4AA2FB0323F7
:1015AC009B0CBB6002E0BB68013BBB60BB68002BC3
:1015BC00F9D1FFF7DBFBF8601FE0FFF7D7FB024622
:1015CC00FB68D31A022B18D97B681B689B6803F045
:1015DC000103012B11D07B689B6A43F010027B68DE
:1015EC009A627B68DB6A43F001027B68DA627B6893
:1015FC00002283F82420012307E07B681B689B688A
:10160C0003F00103012BD8D1002318461037BD4637
:10161C0080BD00BF0000002083DE1B4380B584B07A
:10162C0000AF78600023FB607B681B689B6803F04D
:10163C000103012B2ED17B681B689A687B681B68A1
:10164C0022F001029A60FFF791FBF8601BE0FFF7B4
:10165C008DFB0246FB68D31A022B14D97B681B68DE
:10166C009B6803F00103012B0DD17B689B6A43F04F
:10167C0010027B689A627B68DB6A43F001027B682C
:10168C00DA62012307E07B681B689B6803F00103A7
:10169C00012BDCD0002318461037BD4680BD80B529
:1016AC0084B000AF78607B685B6AFB60FB689B6A08
:1016BC0003F05003002B27D1FB689B6A43F40072A4
:1016CC00FB689A62FB681B689B6803F46023B3F5A4
:1016DC00602F15D1FB681B7B002B11D1FB689B6A1B
:1016EC0023F48072FB689A62FB689B6A03F4805354
:1016FC00002B05D1FB689B6A43F00102FB689A62E0
:10170C00F868FFF71DFE04E0FB681B6A1B6B78682A
:10171C00984700BF1037BD4680BD80B584B000AF80
:10172C0078607B685B6AFB60F868FFF712FE00BFAD
:10173C001037BD4680BD80B584B000AF78607B6843
:10174C005B6AFB60FB689B6A43F04002FB689A6231
:10175C00FB68DB6A43F00402FB68DA62F868FFF7A7
:10176C0001FE00BF1037BD4680BD000080B485B0BF
:10177C0000AF78607B6803F00703FB600C4BDB6801
:10178C00BB60BA684FF6FF031340BB60FB681A02DC
:10179C00BB68134343F0BF6343F40033BB60044A9C
:1017AC00BB68D36000BF1437BD4680BC704700BF18
:1017BC0000ED00E080B400AF044BDB681B0A03F0C3
:1017CC0007031846BD4680BC704700BF00ED00E023
:1017DC0080B483B000AF0346FB7197F90730002B40
:1017EC000BDBFB7903F01F02064997F907305B0905
:1017FC00012000FA02F241F8232000BF0C37BD464D
:10180C0080BC704700E100E080B483B000AF0346B9
:10181C003960FB7197F90730002B0ADB3B68DAB2B1
:10182C000C4997F907301201D2B20B4483F800230C
:10183C000AE03B68DAB20849FB7903F00F03043B7A
:10184C001201D2B20B441A7600BF0C37BD4680BCD5
:10185C00704700BF00E100E000ED00E080B489B00B
:10186C0000AFF860B9607A60FB6803F00703FB61B6
:10187C00FB69C3F10703042B28BF0423BB61FB697D
:10188C000433062B02D9FB69033B00E000237B6188
:10189C004FF0FF32BB6902FA03F3DA43BB681A401C
:1018AC007B699A404FF0FF317B6901FA03F3D9430E
:1018BC007B680B40134318462437BD4680BC7047E9
:1018CC0080B582B000AF78607B68013BB3F1807F5C
:1018DC0001D301230FE00A4A7B68013B53600F21BF
:1018EC004FF0FF30FFF790FF054B00229A60044B3E
:1018FC0007221A60002318460837BD4680BD00BF7A
:10190C0010E000E080B582B000AF78607868FFF737
:10191C002DFF00BF0837BD4680BD80B586B000AF37
:10192C000346B9607A60FB7300237B61FFF742FFCB
:10193C0078617A68B9687869FFF790FF024697F981
:10194C000F3011461846FFF75FFF00BF1837BD4632
:10195C0080BD80B582B000AF0346FB7197F90730AC
:10196C001846FFF735FF00BF0837BD4680BD80B570
:10197C0082B000AF78607868FFF7A2FF0346184684
:10198C000837BD4680BD000080B485B000AF7860DC
:10199C000023FB607B68002B01D1012343E07B68B3
:1019AC001B681A46224B1344224AA2FB03231B0931
:1019BC009A007B681A647B681F4ADA637B68022290
:1019CC0083F821207B681B681B68FB60FB6823F491
:1019DC007F5323F03003FB607B685A687B689B68FD
:1019EC001A437B68DB681A437B681B691A437B6864
:1019FC005B691A437B689B691A437B68DB691343F9
:101A0C00FA681343FB607B681B68FA681A607B6892
:101A1C0000229A637B68012283F821207B680022D4
:101A2C0083F82020002318461437BD4680BC70472D
:101A3C00F8FFFDBFCDCCCCCC0000024080B586B009
:101A4C0000AFF860B9607A603B600023FB75FB68FF
:101A5C0093F82030012B01D102234BE0FB680122CB
:101A6C0083F82020FB6893F82130DBB2012B3AD1AC
:101A7C00FB68022283F82120FB6800229A63FB6832
:101A8C001B681A68FB681B6822F001021A603B682D
:101A9C007A68B968F86800F037F9FB68DB6A002BE4
:101AAC0008D0FB681B681A68FB681B6842F00E02C2
:101ABC001A600FE0FB681B681A68FB681B6822F051
:101ACC0004021A60FB681B681A68FB681B6842F00A
:101ADC000A021A60FB681B681A68FB681B6842F0F4
:101AEC0001021A6005E0FB68002283F82020022323
:101AFC00FB75FB7D18461837BD4680BD80B584B09C
:101B0C0000AF78607B68DB6B1B68FB607B681B68D5
:101B1C001B68BB607B681B6C04229A40FB681340FB
:101B2C00002B4FD0BB6803F00403002B4AD07B681A
:101B3C001B681B6803F02003002B07D17B681B6814
:101B4C001A687B681B6822F004021A607B681B68A9
:101B5C00664A934229D07B681B68654A934222D01F
:101B6C007B681B68634A93421AD07B681B68624A85
:101B7C00934212D07B681B68604A93420AD07B6800
:101B8C001B685F4A934202D14FF480030EE04FF082
:101B9C0080630BE04FF4802308E04FF4804305E0B2
:101BAC004FF4806302E0402300E00423554A536065
:101BBC007B68DB6A002B00F094807B68DB6A7868BA
:101BCC0098478EE07B681B6C02229A40FB6813409E
:101BDC00002B56D0BB6803F00203002B51D07B685E
:101BEC001B681B6803F02003002B0BD17B681B6860
:101BFC001A687B681B6822F00A021A607B68012253
:101C0C0083F821207B681B68384A934229D07B6873
:101C1C001B68374A934222D07B681B68354A934233
:101C2C001AD07B681B68344A934212D07B681B68BD
:101C3C00324A93420AD07B681B68314A934202D1E4
:101C4C004FF400130EE04FF000730BE04FF4003331
:101C5C0008E04FF4005305E04FF4007302E020233A
:101C6C0000E00223274A53607B68002283F820207F
:101C7C007B689B6A002B34D07B689B6A786898479A
:101C8C002FE07B681B6C08229A40FB681340002BEA
:101C9C0028D0BB6803F00803002B23D07B681B689B
:101CAC001A687B681B6822F00E021A607B681A6C3B
:101CBC007B68DB6B012101FA02F25A607B6801221E
:101CCC009A637B68012283F821207B68002283F8C9
:101CDC0020207B681B6B002B04D07B681B6B786807
:101CEC00984700BF00BF1037BD4680BD08000240BA
:101CFC001C000240300002404400024058000240E8
:101D0C006C0002400000024080B485B000AFF86067
:101D1C00B9607A603B60FB681A6CFB68DB6B012175
:101D2C0001FA02F25A60FB681B683A685A60FB6859
:101D3C005B68102B08D1FB681B687A689A60FB689B
:101D4C001B68BA68DA6007E0FB681B68BA689A60BF
:101D5C00FB681B687A68DA6000BF1437BD4680BC2C
:101D6C007047000080B48BB000AF786039600023FE
:101D7C007B6200233B6269E101227B6A02FA03F376
:101D8C00FB613B681B68FA691340BB61BA69FB696C
:101D9C009A4240F058813B685B689A4A93425ED005
:101DAC00984A934275D8984A934258D0964A93428F
:101DBC006FD8964A934252D0944A934269D8944A27
:101DCC0093424CD0924A934263D8924A934246D063
:101DDC00904A93425DD8122B2AD8122B59D801A2C3
:101DEC0052F823F06B1E0008451E0008571E000811
:101DFC00991E00089F1E00089F1E00089F1E0008C9
:101E0C009F1E00089F1E00089F1E00089F1E0008B2
:101E1C009F1E00089F1E00089F1E00089F1E0008A2
:101E2C009F1E00089F1E00084D1E0008611E000822
:101E3C00794A934213D02CE03B68DB683B6229E083
:101E4C003B68DB6804333B6224E03B68DB680833A7
:101E5C003B621FE03B68DB680C333B621AE03B687B
:101E6C009B68002B02D104233B6213E03B689B6808
:101E7C00012B05D108233B627B68FA691A6109E0E2
:101E8C0008233B627B68FA695A6103E000233B62DA
:101E9C0000E000BFBB69FF2B01D87B6801E07B68C9
:101EAC0004337B61BB69FF2B02D87B6A9B0002E089
:101EBC007B6A083B9B003B617B691A680F213B697D
:101ECC0001FA03F3DB431A40396A3B6901FA03F365
:101EDC001A437B691A603B685B6803F08053002BE4
:101EEC0000F0B1804D4B9B694C4A43F00103936168
:101EFC004A4B9B6903F00103BB60BB68484A7B6A91
:101F0C009B08023352F82330FB607B6A03F0030317
:101F1C009B000F2202FA03F3DB43FA681340FB60C9
:101F2C007B68404A934213D07B683F4A93420DD062
:101F3C007B683E4A934207D07B683D4A934201D16D
:101F4C00032306E0042304E0022302E0012300E063
:101F5C0000237A6A02F0030292009340FA6813435A
:101F6C00FB602F497B6A9B080233FA6841F82320F7
:101F7C003B685B6803F48013002B06D02D4B9A68EA
:101F8C002C49BB6913438B6006E02A4B9A68BB69EA
:101F9C00DB43284913408B603B685B6803F40013F8
:101FAC00002B06D0234BDA682249BB691343CB6064
:101FBC0006E0204BDA68BB69DB431E491340CB605B
:101FCC003B685B6803F40033002B06D0194B5A684E
:101FDC001849BB6913434B6006E0164B5A68BB6942
:101FEC00DB43144913404B603B685B6803F480335C
:101FFC00002B21D00F4B1A680E49BB6913430B60A1
:10200C0021E000BF0000321000003110000022104F
:10201C0000002110000012100000111000100240EE
:10202C000000014000080140000C0140001001407C
:10203C0000140140000401400B4B1A68BB69DB43E0
:10204C00094913400B607B6A01337B623B681A6859
:10205C007B6A22FA03F3002B7FF48EAE00BF00BF25
:10206C002C37BD4680BC70470004014080B584B05D
:10207C0000AF78607B68002B01D101232BE17B68DA
:10208C0093F83D30DBB2002B06D17B68002283F83D
:10209C003C207868FEF7B4FC7B68242283F83D2052
:1020AC007B681B681A687B681B6822F001021A6047
:1020BC007B681B681A687B681B6842F400421A60D4
:1020CC007B681B681A687B681B6822F400421A60E4
:1020DC0001F032F8F8607B685B68814A934207D85C
:1020EC00FB68804A934294BF01230023DBB206E0D5
:1020FC00FB687D4A934294BF01230023DBB2002B83
:10210C0001D00123E7E0FB68784AA2FB03239B0C78
:10211C00BB607B681B685B6823F03F017B681B68B6
:10212C00BA680A435A607B681B681B6A23F03F013C
:10213C007B685B686A4A934202D8BB68013309E04A
:10214C00BB684FF4967202FB03F3694AA2FB0323AC
:10215C009B0901337A6812680B4313627B681B6816
:10216C00DB6923F44F4222F0FF027B685B685C4919
:10217C008B4219D8FB68591E7B685B685B00B1FB0E
:10218C00F3F3591C40F6FC730B40002B0AD0FB6890
:10219C00591E7B685B685B00B1FBF3F30133C3F33F
:1021AC000B0351E004234FE07B689B68002B11D19B
:1021BC00FB68581E7B6859680B465B000B44B0FBF0
:1021CC00F3F30133C3F30B03002B0CBF01230023E8
:1021DC00DBB212E0FB68581E7B6859680B469B000B
:1021EC000B4499000B44B0FBF3F30133C3F30B0323
:1021FC00002B0CBF01230023DBB2002B01D00123E9
:10220C0022E07B689B68002B0ED1FB68581E7B6814
:10221C0059680B465B000B44B0FBF3F30133C3F37B
:10222C000B0343F400430FE0FB68581E7B685968AE
:10223C000B469B000B4499000B44B0FBF3F30133AA
:10224C00C3F30B0343F44043796809681343CB6130
:10225C007B681B681B6823F0C0017B68DA697B68AC
:10226C001B6A1A437B681B680A431A607B681B68ED
:10227C009B6823F4034323F0FF037A6811697A689F
:10228C00D26811437A6812680B4393607B681B68B1
:10229C00DB6823F0FF017B685A697B689B691A43F2
:1022AC007B681B680A43DA607B681B681A687B686A
:1022BC001B6842F001021A607B6800221A647B687A
:1022CC00202283F83D207B6800221A637B68002261
:1022DC0083F83E20002318461037BD4680BD00BF52
:1022EC00A08601007F841E00FF083D0083DE1B4397
:1022FC00D34D621080B588B002AFF8607A601A4690
:10230C000B467B8113463B81FEF730FD7861FB6801
:10231C0093F83D30DBB2202B40F0E0807B690093DA
:10232C00192301227049F86800F064F90346002B68
:10233C0001D00223D3E0FB6893F83C30012B01D190
:10234C000223CCE0FB68012283F83C20FB681B686D
:10235C001B6803F00103012B07D0FB681B681A688C
:10236C00FB681B6842F001021A60FB681B681A6864
:10237C00FB681B6822F400621A60FB68212283F858
:10238C003D20FB68102283F83E20FB6800221A6473
:10239C00FB687A685A62FB683A895A85FB685B8DE0
:1023AC009AB2FB681A85FB68504ADA6279897B69B4
:1023BC003A6AF86800F09CF80346002B01D0012320
:1023CC008DE000233B61FB681B685B693B61FB682C
:1023DC001B689B693B613B6966E07A69396AF868FE
:1023EC0000F022FA0346002B0DD0FB681B6C042B6B
:1023FC0007D1FB681B681A68FB681B6842F4007203
:10240C001A6001236BE0FB685B6A1A78FB681B6837
:10241C001A61FB685B6A5A1CFB685A62FB685B8D2D
:10242C009BB2013B9AB2FB685A85FB681B8D013B42
:10243C009AB2FB681A85FB681B685B6903F004039E
:10244C00042B1BD1FB681B8D002B17D0FB685B6A20
:10245C001A78FB681B681A61FB685B6A5A1CFB687C
:10246C005A62FB685B8D9BB2013B9AB2FB685A8542
:10247C00FB681B8D013B9AB2FB681A857A69396A35
:10248C00F86800F019FA0346002B0DD0FB681B6CA2
:10249C00042B07D1FB681B681A68FB681B6842F4A5
:1024AC0000721A6001231AE0FB681B8D002B94D17B
:1024BC00FB681B681A68FB681B6842F400721A60A0
:1024CC00FB68202283F83D20FB68002283F83E2025
:1024DC00FB68002283F83C20002300E0022318460E
:1024EC001837BD4680BD00BF020010000000FFFF82
:1024FC0080B588B002AFF8607A603B600B467B8198
:10250C00FB68DB6A7B617B69082B06D07B69012B3E
:10251C0003D07B6913F5803F08D1FB681B681A68F0
:10252C00FB681B6842F480721A600BE0FB681B6B43
:10253C00122B07D1FB681B681A68FB681B6842F4F6
:10254C0080721A603B6800937B6800224FF0011187
:10255C00F86800F04FF80346002B0DD0FB681B68A1
:10256C001B6803F48073B3F5807F03D1FB684FF4D1
:10257C0000721A64032335E0FB681B69B3F5804FC6
:10258C0008D17B89DBB21A46FB681B6802F0FE029D
:10259C001A611BE07B89DB11DBB203F00603DBB2B3
:1025AC0063F00F03DAB2FB681B681A613B687A6848
:1025BC000E49F86800F098F80346002B01D001236F
:1025CC0010E07B89DAB2FB681B681A613B687A6899
:1025DC000749F86800F088F80346002B01D0012366
:1025EC0000E0002318461837BD4680BD08000100E6
:1025FC000200010080B584B000AFF860B9603B60A8
:10260C001346FB7148E03B68B3F1FF3F44D0FEF743
:10261C00ADFB0246BB69D31A3A689A4202D33B68B7
:10262C00002B39D1BB681B0CDBB2012B0DD1FB6825
:10263C001B685B69DA43BB6813409BB2002B0CBF71
:10264C0001230023DBB21A460CE0FB681B689B6974
:10265C00DA43BB6813409BB2002B0CBF0123002351
:10266C00DBB21A46FB799A4216D1FB6800221A6338
:10267C00FB68202283F83D20FB68002283F83E2073
:10268C00FB681B6C43F02002FB681A64FB68002299
:10269C0083F83C20012323E0BB681B0CDBB2012B2D
:1026AC000DD1FB681B685B69DA43BB6813409BB2B6
:1026BC00002B0CBF01230023DBB21A460CE0FB6895
:1026CC001B689B69DA43BB6813409BB2002B0CBFA1
:1026DC0001230023DBB21A46FB799A4293D00023E4
:1026EC0018461037BD4680BD80B584B000AFF86089
:1026FC00B9607A603B6071E0FB681B685B6903F44E
:10270C008063B3F5806F23D1FB681B681A68FB6884
:10271C001B6842F400721A60FB681B686FF48062DD
:10272C005A61FB6800221A63FB68202283F83D2063
:10273C00FB68002283F83E20FB681B6C43F004020C
:10274C00FB681A64FB68002283F83C20012367E0D5
:10275C007B68B3F1FF3F41D0FEF708FB02463B68B4
:10276C00D31A7A689A4202D37B68002B36D1BB68A5
:10277C001B0CDBB2012B0CD1FB681B685B69DA43C9
:10278C00BB6813409BB2002B14BF01230023DBB2A8
:10279C000BE0FB681B689B69DA43BB6813409BB278
:1027AC00002B14BF01230023DBB2002B16D0FB68D7
:1027BC0000221A63FB68202283F83D20FB6800226C
:1027CC0083F83E20FB681B6C43F02002FB681A6404
:1027DC00FB68002283F83C20012321E0BB681B0C22
:1027EC00DBB2012B0CD1FB681B685B69DA43BB685D
:1027FC0013409BB2002B14BF01230023DBB20BE070
:10280C00FB681B689B69DA43BB6813409BB2002BC7
:10281C0014BF01230023DBB2002B7FF46DAF002328
:10282C0018461037BD4680BD80B584B000AFF86047
:10283C00B9607A6034E0F86800F086F80346002B43
:10284C0001D0012334E0BB68B3F1FF3F28D0FEF781
:10285C008DFA02467B68D31ABA689A4202D3BB68D7
:10286C00002B1DD1FB681B685B6903F08003802B78
:10287C0016D0FB6800221A63FB68202283F83D20E7
:10288C00FB68002283F83E20FB681B6C43F020029F
:10289C00FB681A64FB68002283F83C20012307E0E4
:1028AC00FB681B685B6903F08003802BC3D100239A
:1028BC0018461037BD4680BD80B584B000AFF860B7
:1028CC00B9607A6034E0F86800F03EF80346002BFB
:1028DC0001D0012334E0BB68B3F1FF3F28D0FEF7F1
:1028EC0045FA02467B68D31ABA689A4202D3BB688F
:1028FC00002B1DD1FB681B685B6903F00403042BE0
:10290C0016D0FB6800221A63FB68202283F83D2056
:10291C00FB68002283F83E20FB681B6C43F020020E
:10292C00FB681A64FB68002283F83C20012307E053
:10293C00FB681B685B6903F00403042BC3D1002301
:10294C0018461037BD4680BD80B483B000AF7860A8
:10295C007B681B685B6903F48063B3F5806F1BD1E4
:10296C007B681B686FF480625A617B6800221A6373
:10297C007B68202283F83D207B68002283F83E2070
:10298C007B681B6C43F004027B681A647B68002232
:10299C0083F83C20012300E0002318460C37BD4689
:1029AC0080BC704780B586B000AF78607B68002B28
:1029BC0001D1012372E27B681B6803F00103002B39
:1029CC0000F08780924B5B6803F00C03042B0CD057
:1029DC008F4B5B6803F00C03082B12D18C4B5B689C
:1029EC0003F48033B3F5803F0BD1894B1B6803F4A0
:1029FC000033002B6CD07B685B68002B68D1012303
:102A0C004CE27B685B68B3F5803F06D1804B1B685A
:102A1C007F4A43F4803313602EE07B685B68002BA5
:102A2C000CD17B4B1B687A4A23F480331360784BB0
:102A3C001B68774A23F4802313601DE07B685B6876
:102A4C00B3F5A02F0CD1724B1B68714A43F4802351
:102A5C0013606F4B1B686E4A43F4803313600BE0BA
:102A6C006B4B1B686A4A23F480331360684B1B68FA
:102A7C00674A23F4802313607B685B68002B13D0B8
:102A8C00FEF774F9386108E0FEF770F902463B690D
:102A9C00D31A642B01D9032300E25D4B1B6803F4AA
:102AAC000033002BF0D014E0FEF760F9386108E039
:102ABC00FEF75CF902463B69D31A642B01D9032358
:102ACC00ECE1534B1B6803F40033002BF0D100E016
:102ADC0000BF7B681B6803F00203002B63D04C4BD8
:102AEC005B6803F00C03002B0BD0494B5B6803F0C5
:102AFC000C03082B1CD1464B5B6803F48033002B72
:102B0C0016D1434B1B6803F00203002B05D07B68E6
:102B1C001B69012B01D00123C0E13D4B1B6823F045
:102B2C00F8027B685B69DB00394913430B603AE0C0
:102B3C007B681B69002B20D0364B01221A60FEF7F4
:102B4C0015F9386108E0FEF711F902463B69D31A12
:102B5C00022B01D90323A1E12D4B1B6803F00203C7
:102B6C00002BF0D02A4B1B6823F0F8027B685B69C2
:102B7C00DB00274913430B6015E0264B00221A603B
:102B8C00FEF7F4F8386108E0FEF7F0F802463B690E
:102B9C00D31A022B01D9032380E11D4B1B6803F0D0
:102BAC000203002BF0D17B681B6803F00803002B99
:102BBC003AD07B689B69002B19D0174B01221A6005
:102BCC00FEF7D4F8386108E0FEF7D0F802463B690E
:102BDC00D31A022B01D9032360E10D4B5B6A03F07E
:102BEC000203002BF0D0012000F0CEFA1CE00A4BBF
:102BFC0000221A60FEF7BAF838610FE0FEF7B6F85B
:102C0C0002463B69D31A022B08D9032346E100BFC5
:102C1C00001002400000424280044242924B5B6A28
:102C2C0003F00203002BE9D17B681B6803F004035B
:102C3C00002B00F0A6800023FB758B4BDB6903F0A7
:102C4C008053002B0DD1884BDB69874A43F08053AE
:102C5C00D361854BDB6903F08053BB60BB680123F8
:102C6C00FB75824B1B6803F48073002B18D17F4BD0
:102C7C001B687E4A43F480731360FEF777F8386163
:102C8C0008E0FEF773F802463B69D31A642B01D9AE
:102C9C00032303E1754B1B6803F48073002BF0D006
:102CAC007B68DB68012B06D16F4B1B6A6E4A43F0C5
:102CBC00010313622DE07B68DB68002B0CD16A4B9F
:102CCC001B6A694A23F001031362674B1B6A664A4D
:102CDC0023F0040313621CE07B68DB68052B0CD12A
:102CEC00614B1B6A604A43F0040313625E4B1B6A20
:102CFC005D4A43F0010313620BE05B4B1B6A5A4ABB
:102D0C0023F001031362584B1B6A574A23F0040348
:102D1C0013627B68DB68002B15D0FEF727F838614F
:102D2C000AE0FEF723F802463B69D31A41F28832D7
:102D3C00934201D90323B1E04B4B1B6A03F002030E
:102D4C00002BEED014E0FEF711F838610AE0FEF724
:102D5C000DF802463B69D31A41F28832934201D9ED
:102D6C0003239BE0404B1B6A03F00203002BEED1C4
:102D7C00FB7D012B05D13C4BDB693B4A23F0805397
:102D8C00D3617B68DB69002B00F08780364B5B6876
:102D9C0003F00C03082B61D07B68DB69022B46D156
:102DAC00334B00221A60FDF7E1FF386108E0FDF7B4
:102DBC00DDFF02463B69D31A022B01D903236DE0D8
:102DCC00294B1B6803F00073002BF0D17B681B6A46
:102DDC00B3F5803F08D1244B5B6823F400327B6849
:102DEC009B68214913434B601F4B5B6823F474129F
:102DFC007B68196A7B685B6A0B431B4913434B6006
:102E0C001B4B01221A60FDF7B1FF386108E0FDF79A
:102E1C00ADFF02463B69D31A022B01D903233DE0D7
:102E2C00114B1B6803F00073002BF0D035E0104BF6
:102E3C0000221A60FDF79AFF386108E0FDF796FF53
:102E4C0002463B69D31A022B01D9032326E0064B19
:102E5C001B6803F00073002BF0D11EE07B68DB696C
:102E6C00012B07D1012319E0001002400070004033
:102E7C00600042420B4B5B68FB60FB6803F48032E2
:102E8C007B681B6A9A4206D1FB6803F470127B685C
:102E9C005B6A9A4201D0012300E0002318461837E0
:102EAC00BD4680BD0010024080B584B000AF786094
:102EBC0039607B68002B01D10123D0E06A4B1B6881
:102ECC0003F007033A689A4210D9674B1B6823F04A
:102EDC00070265493B6813430B60634B1B6803F0A7
:102EEC0007033A689A4201D00123B8E07B681B685B
:102EFC0003F00203002B20D07B681B6803F0040353
:102F0C00002B05D0594B5B68584A43F4E06353607F
:102F1C007B681B6803F00803002B05D0534B5B68E0
:102F2C00524A43F460535360504B5B6823F0F002F9
:102F3C007B689B684D4913434B607B681B6803F0AF
:102F4C000103002B40D07B685B68012B07D1474BFA
:102F5C001B6803F40033002B15D101237FE07B6841
:102F6C005B68022B07D1414B1B6803F00073002BED
:102F7C0009D1012373E03D4B1B6803F00203002BC6
:102F8C0001D101236BE0394B5B6823F003027B68B2
:102F9C005B68364913434B60FDF7E8FEF8600AE0C6
:102FAC00FDF7E4FE0246FB68D31A41F288329342E5
:102FBC0001D9032353E02D4B5B6803F00C027B68B3
:102FCC005B689B009A42EBD1274B1B6803F007030D
:102FDC003A689A4210D2244B1B6823F0070222490C
:102FEC003B6813430B60204B1B6803F007033A68E4
:102FFC009A4201D0012332E07B681B6803F0040382
:10300C00002B08D0194B5B6823F4E0627B68DB680B
:10301C00164913434B607B681B6803F00803002BB5
:10302C0009D0124B5B6823F460527B681B69DB0090
:10303C000E4913434B6000F021F802460B4B5B68C2
:10304C001B0903F00F030A49CB5C22FA03F3094A6C
:10305C001360094B1B681846FDF746FE0023184603
:10306C001037BD4680BD00BF00200240001002405A
:10307C0058480008000000200400002080B487B0ED
:10308C0000AF0023FB600023BB6000237B610023A7
:10309C007B6000233B611E4B5B68FB60FB6803F0AD
:1030AC000C03042B02D0082B03D027E0194B3B61F7
:1030BC0027E0FB689B0C03F00F03174AD35C7B6083
:1030CC00FB6803F48033002B10D0114B5B685B0C56
:1030DC0003F00103114AD35CBB607B680D4A03FB10
:1030EC0002F2BB68B2FBF3F37B6104E07B680C4A31
:1030FC0002FB03F37B617B693B6102E0054B3B61A7
:10310C0000BF3B6918461C37BD4680BC704700BFEA
:10311C000010024000127A00704800088048000835
:10312C0000093D0080B400AF024B1B681846BD4639
:10313C0080BC70470000002080B500AFFFF7F2FFA5
:10314C000246054B5B681B0A03F007030349CB5C83
:10315C0022FA03F3184680BD0010024068480008AC
:10316C0080B500AFFFF7DEFF0246054B5B68DB0A5C
:10317C0003F007030349CB5C22FA03F3184680BD26
:10318C00001002406848000880B485B000AF786039
:10319C000A4B1B680A4AA2FB03235B0A7A6802FBF0
:1031AC0003F3FB6000BFFB685A1EFA60002BF9D1D9
:1031BC0000BF00BF1437BD4680BC70470000002024
:1031CC00D34D621080B586B000AF786000233B61B0
:1031DC000023FB607B681B6803F00103002B7DD090
:1031EC000023FB754F4BDB6903F08053002B0DD193
:1031FC004C4BDB694B4A43F08053D361494BDB6941
:10320C0003F08053BB60BB680123FB75464B1B6806
:10321C0003F48073002B18D1434B1B68424A43F4D0
:10322C0080731360FDF7A2FD386108E0FDF79EFD89
:10323C0002463B69D31A642B01D903236DE03A4B48
:10324C001B6803F48073002BF0D0364B1B6A03F41D
:10325C004073FB60FB68002B2ED07B685B6803F42B
:10326C004073FA689A4227D02E4B1B6A23F44073A2
:10327C00FB602E4B01221A602C4B00221A60294A4B
:10328C00FB681362FB6803F00103002B14D0FDF7FD
:10329C006DFD38610AE0FDF769FD02463B69D31A02
:1032AC0041F28832934201D9032336E01D4B1B6A4D
:1032BC0003F00203002BEED01A4B1B6A23F440726E
:1032CC007B685B68174913430B62FB7D012B05D1AF
:1032DC00144BDB69134A23F08053D3617B681B6862
:1032EC0003F00203002B08D00E4B5B6823F4404222
:1032FC007B689B680B4913434B607B681B6803F02E
:10330C001003002B08D0074B5B6823F480027B680A
:10331C00DB68044913434B60002318461837BD463D
:10332C0080BD00BF001002400070004040044242CB
:10333C0080B588B000AF786000237B610023FB610F
:10334C0000233B610023FB600023BB617B68102BD7
:10335C000AD07B68102B00F28A807B68012B45D049
:10336C007B68022B75D082E0464B5B68FB60454B5B
:10337C001B6803F08073002B7BD0FB689B0C03F065
:10338C000F03414AD35C3B61FB6803F48033002B91
:10339C0015D03C4B5B685B0C03F001033B4AD35CE0
:1033AC007B61FB6803F48033002B0DD0384A7B69BA
:1033BC00B2FBF3F23B6902FB03F3FB6104E03B69F4
:1033CC00344A02FB03F3FB612E4B5B6803F480036E
:1033DC00B3F5800F02D1FB69BB614AE0FB695B006E
:1033EC002D4AA2FB03235B08BB6142E0254B1B6A01
:1033FC00FB60FB6803F44073B3F5807F08D1FB6876
:10340C0003F00203002B03D04FF40043BB611FE019
:10341C00FB6803F44073B3F5007F09D1194B5B6A69
:10342C0003F00203002B03D049F64043BB610FE0CD
:10343C00FB6803F44073B3F5407F1CD1114B1B6840
:10344C0003F40033002B16D04FF22443BB6112E07F
:10345C0011E0FFF785FE02460A4B5B689B0B03F0FD
:10346C00030301335B00B2FBF3F3BB6104E000BF69
:10347C0002E000BF00E000BFBB6918462037BD4624
:10348C0080BD00BF0010024084480008944800082A
:10349C0000127A0000093D00ABAAAAAA80B582B03E
:1034AC0000AF78607B68002B01D101234AE07B6878
:1034BC0093F84130DBB2002B06D17B68002283F8F5
:1034CC0040207868FDF7DAFA7B68242283F84120E3
:1034DC007B681B68DA687B681B6822F40052DA6030
:1034EC00786800F025F97B681B681A697B681B6893
:1034FC0022F490421A617B681B685A697B681B68CE
:10350C0022F022025A617B681B685A697B681B682F
:10351C0042F008025A617B681B68DA687B681B689A
:10352C0042F40052DA607B6800225A647B682022E5
:10353C0083F841207B68202283F842207B6800229C
:10354C005A63002318460837BD4680BD80B58AB043
:10355C0002AFF860B9603B601346FB8000237B61CF
:10356C00FB6893F84130DBB2202B6DD1BB68002B8C
:10357C0002D0FB88002B01D1012366E0FB680022FE
:10358C005A64FB68212283F84120FDF7EFFB786138
:10359C00FB68FA889A84FB68FA88DA84FB689B6873
:1035AC00B3F5805F08D1FB681B69002B04D10023A5
:1035BC00FB61BB68BB6103E0BB68FB610023BB61C3
:1035CC002AE03B6800937B6900228021F86800F0B8
:1035DC0040F80346002B01D0032336E0FB69002B97
:1035EC000BD1BB691B881A46FB681B68C2F3080227
:1035FC005A60BB690233BB6107E0FB691A78FB6850
:10360C001B685A60FB690133FB61FB68DB8C9BB266
:10361C00013B9AB2FB68DA84FB68DB8C9BB2002B13
:10362C00CFD13B6800937B6900224021F86800F001
:10363C0010F80346002B01D0032306E0FB68202280
:10364C0083F84120002300E0022318462037BD46B2
:10365C0080BD80B590B000AFF860B9603B60134698
:10366C00FB7150E0BB6CB3F1FF3F4CD0BB6C002B3B
:10367C0007D0FDF77BFB02463B68D31ABA6C9A4223
:10368C0041D2FB681B680C33BB62BB6A53E8003F3A
:10369C007B627B6A23F4D073FB63FB681B680C337F
:1036AC00FA6B7A633B63396B7A6B41E80023FB62FC
:1036BC00FB6A002BE5D1FB681B6814337B617B69CB
:1036CC0053E8003F3B613B6923F00103BB63FB689C
:1036DC001B681433BA6B3A62FB61F9693A6A41E8C8
:1036EC000023BB61BB69002BE5D1FB68202283F86A
:1036FC004120FB68202283F84220FB68002283F8DB
:10370C00402003230FE0FB681B681A68BB6813405A
:10371C00BA689A420CBF01230023DBB21A46FB792C
:10372C009A429FD0002318464037BD4680BD00000A
:10373C0080B584B000AF78607B681B681B6923F48C
:10374C0040517B68DA687B681B680A431A617B68A6
:10375C009A687B681B691A437B685B691343BB607F
:10376C007B681B68DB6823F4B05323F00C037A6886
:10377C001268B9680B43D3607B681B685B6923F4E0
:10378C0040717B689A697B681B680A435A617B6845
:10379C001B682C4A934203D1FFF7E2FCF86002E06D
:1037AC00FFF7CAFCF860FA6813469B0013449A00B2
:1037BC001A447B685B689B00B2FBF3F3224AA2FBC2
:1037CC0003235B091901FA6813469B0013449A0002
:1037DC001A447B685B689B00B2FBF3F21A4BA3FBA9
:1037EC0002035B09642000FB03F3D31A1B01323381
:1037FC00154AA2FB03235B0903F0F0031944FA6892
:10380C0013469B0013449A001A447B685B689B0028
:10381C00B2FBF3F20C4BA3FB02035B09642000FB2D
:10382C0003F3D31A1B013233074AA2FB03235B09B0
:10383C0003F00F027B681B680A449A6000BF1037C4
:10384C00BD4680BD003801401F85EB51014B186807
:10385C00704700BF0C00002070B500260C4D0D4CBD
:10386C00641BA410A64209D100F0B6FF00260A4D35
:10387C000A4C641BA410A64205D170BD55F8043B3C
:10388C0098470136EEE755F8043B98470136F2E7C6
:10389C003049000830490008304900083449000814
:1038AC0003460244934200D1704703F8011BF9E729
:1038BC000FB40A4B13B51C6824B1A36913B9204685
:1038CC0000F066F805AB2046049AA168019300F05D
:1038DC00BBF902B0BDE8104004B070470C000020EA
:1038EC00002310B50446C0E90033C0E904338360FB
:1038FC0081814366C2818361194608225C30FFF7DF
:10390C00CFFF054B24626362044BA362044BE3625A
:10391C00044B236310BD00BF014200082342000882
:10392C005B4200087F420008014900F0AFB800BFBD
:10393C0051450008682270B54D1E55430E4605F1E1
:10394C00740100F0E5F8044640B10021C0E900160E
:10395C000C30A06005F16802FFF7A2FF204670BD95
:10396C00014800F0B3B800BFA5010020014800F0E9
:10397C00AEB800BFA5010020014800F0A7B800BFF9
:10398C00A6010020014800F0A2B800BFA60100204B
:10399C0010B50446FFF7F0FFA3691BB1BDE810405A
:1039AC00FFF7F0BFC4E912332365134B134A1B68AE
:1039BC00A262A34208BF0123204608BFA36100F006
:1039CC001FF86060204600F01BF8A060204600F055
:1039DC0017F800220421E0606068FFF781FF0122E4
:1039EC000921A068FFF77CFF02221221E068FFF793
:1039FC0077FF0123A361D1E7984800083539000807
:103A0C00F8B50746FFF7ACFF1E4B1E68B36913B938
:103A1C003046FFF7BDFF4836D6E90134013B03D5EC
:103A2C0033680BB33668F7E7B4F90C50D5B9164BBD
:103A3C0004F15800E360656600F047F8FFF796FF65
:103A4C0008222946C4E90155C4E904552560A5613D
:103A5C0004F15C00FFF724FFC4E90D55C4E91255CD
:103A6C002046F8BD6834D9E704213846FFF762FFD9
:103A7C00044630600028D5D1FFF778FF0C233B605B
:103A8C00EEE700BF984800080100FFFF2DE9F8435E
:103A9C0006468846002700F14804D4E90195B9F19F
:103AAC00010905D52468002CF7D13846BDE8F88308
:103ABC00AB89012B07D9B5F90E30013303D0294658
:103ACC003046C04707436835E9E770477047704791
:103ADC0070B50E4E0C463168054611B900F07AFBF4
:103AEC0030602146284600F075FB431C0AD0C41CEC
:103AFC0024F00304A04207D0211A284600F06AFBE8
:103B0C00013001D14FF0FF34204670BDAC010020D4
:103B1C002DE9F041CD1C25F0030508350C2D38BFDF
:103B2C000C25002D074601DBA94205D90C230026E4
:103B3C003B603046BDE8F0812E4E00F0C5FD336889
:103B4C001C4634BB29463846FFF7C2FF431C0446CB
:103B5C004DD134682646002E40D123683146384674
:103B6C0004EB030800F036FB80453AD1216803359D
:103B7C006D1A25F0030508350C2D38BF0C25384679
:103B8C002946FFF7A5FF01302BD023682B44236077
:103B9C000EE02268521B1ED40B2A16D96119A342BF
:103BAC00256018BF5960636808BF316062514B6073
:103BBC00384604F10B0600F08DFD26F00706231D98
:103BCC00F21AB6D09B1BA350B3E76268A3420CBF9A
:103BDC0032605A60ECE723466468B2E73446766894
:103BEC00B9E70C2338463B6000F074FDA1E7256073
:103BFC00DEE700BFA8010020936810B4013B002B46
:103C0C00936007DA9469A34201DB0A2902D110BC44
:103C1C0000F034BB1368581C10601970084610BCB7
:103C2C007047F8B506460F461446D518AC4201D17C
:103C3C00002007E03A46304614F8011BFFF7DCFF82
:103C4C00431CF3D1F8BD00002DE9F04F0D4614468E
:103C5C00984606469DB018B183690BB9FFF798FEDC
:103C6C00894B9D421BD175686B6ED90705D4AB8906
:103C7C009A0502D4A86DFFF729FFAB891B0701D564
:103C8C002B69EBB92946304600F05CFBC0B16B6E7A
:103C9C00DC070ED54FF0FF301DB0BDE8F08F7B4B2D
:103CAC009D4201D1B568DFE7794B9D4208BFF568AD
:103CBC00DAE7AB899805EDD4A86DFFF708FFE9E7C3
:103CCC000023099320238DF8293030234FF001096C
:103CDC00CDF80C80DFF8BC818DF82A3023469A464B
:103CEC0013F8012B0AB1252AF9D1BAEB040B0BD02E
:103CFC005B46224629463046FFF793FF013000F021
:103D0C00AA80099A5A4409929AF80030002B00F0C4
:103D1C00A28000234FF0FF32CDE905230AF1010AFE
:103D2C00049307938DF853301A935446052214F8D4
:103D3C00011B584800F0BAFC049AD8B9D10644BF0C
:103D4C0020238DF85330130744BF2B238DF85330A9
:103D5C009AF800302A2B15D0544600204FF00A0C4C
:103D6C00079A214611F8013B303B092B4ED9B0B1D3
:103D7C00079214E0A0EB080309FA03F31343A246DD
:103D8C000493D2E7039B191D1B680391002BBBBF47
:103D9C005B4242F0020207930793B8BF0492237868
:103DAC002E2B0CD163782A2B35D1039B02341A1D90
:103DBC001B680392002BB8BF4FF0FF330593DFF85D
:103DCC00D8A003225046217800F070FC40B140236B
:103DDC00A0EB0A0003FA00F0049B013403430493A4
:103DEC0014F8011B06222D488DF8281000F05EFCFB
:103DFC0000283FD02A4B1BBB039B073323F0070340
:103E0C0008330393099B3B44099367E70C46012055
:103E1C000CFB0232A5E700234FF00A0C19460134C3
:103E2C000593204610F8012B303A092A03D9002BB0
:103E3C00C5D00591C3E7044601230CFB0121F0E733
:103E4C0003AB00932A463046164B04A9AFF300800F
:103E5C000746781CD6D16B6ED90705D4AB899A0569
:103E6C0002D4A86DFFF733FEAB895B063FF512AFAA
:103E7C00099811E703AB00932A463046094B04A975
:103E8C0000F082F8E4E700BFBC480008DC480008FA
:103E9C009C480008FC480008024900080649000834
:103EAC00000000002F3C00082DE9F047164699460B
:103EBC008A680B6907469342B8BF1346336091F882
:103ECC0043200C46DDF820800AB1013333602368AF
:103EDC00990642BF336802333360256815F0060536
:103EEC0006D104F1190AE36832689B1AAB4228DC4C
:103EFC0094F84320131E226818BF012392062DD478
:103F0C004946384604F14302C047013020D02368AB
:103F1C00E56803F00603042B18BF002532684FF048
:103F2C000006A36808BFAD1A226908BF25EAE5752B
:103F3C009342C4BF9B1AED181A34B5421AD1002013
:103F4C0008E00123524649463846C047013003D1A8
:103F5C004FF0FF30BDE8F0870135C4E73020E118A1
:103F6C0081F843005A1C94F845102244023382F81D
:103F7C004310C5E70123224649463846C047013065
:103F8C00E6D00136D9E700002DE9FF470F7E9146B8
:103F9C00782F80460C469A460C9D01F1430207D8B7
:103FAC00622F0AD8002F00F0D980582F00F0A4807F
:103FBC0004F1420584F842703AE0A7F16303152B33
:103FCC00F6D801A151F823F02D400008414000081B
:103FDC00BD3F0008BD3F0008BD3F0008BD3F0008C5
:103FEC0041400008BD3F0008BD3F0008BD3F000830
:103FFC00BD3F00084F4100087140000831410008E6
:10400C00BD3F0008BD3F000871410008BD3F0008DE
:10401C0071400008BD3F0008BD3F00083941000851
:10402C002B681A1D1B682A6004F1420584F8423083
:10403C000123A4E020682968060601F104030AD5CF
:10404C000E682B60002E03DA2D23764284F8433061
:10405C000A235E4819E00E6810F0400F2B6018BF61
:10406C0036B2EFE72B682068191D2960010601D5CF
:10407C001E6802E04606FBD51E886F2F0CBF082376
:10408C000A235248002184F843106568002DA8BF0C
:10409C002168A560A4BF21F0040121600EB9002D98
:1040AC004DD01546B6FBF3F103FB1167C75D05F860
:1040BC00017D3746BB420E46F4D9082B0BD1236841
:1040CC00DE0708D5236961689942DEBF302305F805
:1040DC00013C05F1FF35521B22614B4621464046FF
:1040EC00CDF800A003AAFFF7DFFE01304CD14FF052
:1040FC00FF3004B0BDE8F087344881F8457029687A
:10410C00236851F8046B29601D0614D5DF0744BFE2
:10411C0043F0200323601EB9236823F0200323609F
:10412C001023AFE7236843F020032360782328484B
:10413C0084F84530E3E7590648BFB6B2E6E71546C2
:10414C00BBE72B682668181D6169286035061B685B
:10415C0001D5196002E07006FBD5198000231546C5
:10416C002361BAE72B6800211A1D2A601D6862685A
:10417C00284600F09BFA08B1401B6060636823611D
:10418C00002384F84330A8E72A4649464046236971
:10419C00D0470130ABD023689B0713D4E068039B56
:1041AC009842B8BF1846A4E7012332464946404618
:1041BC00D04701309BD00135E36803995B1AAB42C1
:1041CC00F2DCEBE7002504F11906F5E70D490008D0
:1041DC001E49000838B50023054D044608462B60DF
:1041EC00FCF70AFD431C02D12B6803B1236038BDD8
:1041FC00B001002010B50C46B1F90E1000F0B8FA61
:10420C000028ABBF636DA3891B1823F48053ACBF8C
:10421C006365A38110BD2DE9F0411F468B890546CE
:10422C00DB050C46164605D502230022B1F90E100B
:10423C0000F0C4F9A389324623F48053A3812846A5
:10424C003B46B4F90E10BDE8F04100F069B810B56A
:10425C000C46B1F90E1000F0B1F9431CA38915BF3F
:10426C00606523F4805343F48053A38118BFA3816A
:10427C0010BDB1F90E1000F0D3B80000F8B50E4621
:10428C001446054618B183690BB9FFF781FB214B26
:10429C009C422BD16C68A369A360A3891A072FD504
:1042AC0023696BB323692068F6B2C01A6369374679
:1042BC00834204DC2146284600F044F930BBA36855
:1042CC000130013BA36023685A1C22601E70636995
:1042DC00834204D0A389DB0706D50A2E04D12146DC
:1042EC00284600F02FF988B93846F8BD0A4B9C4295
:1042FC0001D1AC68CFE7094B9C4208BFEC68CAE718
:10430C002146284600F01EF80028CBD04FF0FF378E
:10431C00EAE700BFBC480008DC4800089C480008DD
:10432C0038B50446084611460022054D2A601A4647
:10433C00FBF706FF431C02D12B6803B1236038BD89
:10434C00B0010020324B70B51D6806460C4625B1F5
:10435C00AB6913B92846FFF71BFB2E4B9C420FD1C0
:10436C006C68A389B4F90C2019072CD4DD0611D480
:10437C000923336042F040034FF0FF30A3813EE04D
:10438C00254B9C4201D1AC68EBE7244B9C4208BF07
:10439C00EC68E6E7580712D5616B41B104F14403B0
:1043AC00994202D0304600F09BF900236363A38945
:1043BC0023F02403A3810023636023692360A38972
:1043CC0043F00803A38123694BB9A38903F4207339
:1043DC00B3F5007F03D02146304600F027F9A089C1
:1043EC00B4F90C2010F001030AD00023A360636918
:1043FC005B42A361236943B910F08000BAD170BD50
:10440C00810758BF6369A360F4E70020F7E700BF9A
:10441C000C000020BC480008DC4800089C48000840
:10442C0038B50023054D044608462B60FCF7B3FB5A
:10443C00431C02D12B6803B1236038BDB0010020AE
:10444C008A89F8B5054610070C4657D44B68002BE3
:10445C0004DC0B6C002B01DC0020F8BDE66A002E9E
:10446C00FAD0002312F480522F682B6032D0606D8A
:10447C00A3895A0705D56368C01A636B0BB1236C0B
:10448C00C01A00230246E66A2846216AB047431C3C
:10449C00A38906D129681D292CD8294ACA40D607D8
:1044AC0028D5002262602269D904226004D5421CFE
:1044BC0001D12B6803B96065616B2F600029CBD0EB
:1044CC0004F14403994202D0284600F009F9002077
:1044DC006063C2E7216A01232846B047411CC7D15B
:1044EC002B68002BC4D01D2B01D0162B01D12F60B3
:1044FC00B2E7A38943F04003A381AEE70F69002F15
:10450C00AAD0930718BF00230E6808BF4B69F61B8F
:10451C000F608B60002E9FDD33463A462846216A99
:10452C00D4F828C0E047002806DCA3894FF0FF3000
:10453C0043F04003A38190E70744361AEAE700BF33
:10454C000100402038B50B6905460C4613B900250F
:10455C00284638BD18B183690BB9FFF719FA144B0B
:10456C009C421BD16C68B4F90C30002BEFD0626EFE
:10457C00D00704D4990502D4A06DFFF7A7FA2846FA
:10458C002146FFF75DFF636E0546DA07E0D4A38989
:10459C009B05DDD4A06DFFF79AFAD9E7054B9C4239
:1045AC0001D1AC68DFE7044B9C4208BFEC68DAE74A
:1045BC00BC480008DC4800089C48000838B5044694
:1045CC00084611460022054D2A601A46FCF707FBE7
:1045DC00431C02D12B6803B1236038BDB00100200D
:1045EC0070B50E46B1F90E10144600291D4696B052
:1045FC0008DA0022B6F90C302A601A0610D44FF4EF
:10460C0080630EE06A4600F0C5F80028F1DB019AE1
:10461C0002F47042A2F500535A425A412A60EEE766
:10462C0040230020236016B070BD00008B8973B549
:10463C009D0706460C4607D504F14703236023610A
:10464C000123636102B070BD6A4601ABFFF7C8FF7E
:10465C00009905463046FFF75BFA48B9B4F90C30BF
:10466C009A05EFD423F0030343F00203A381E3E79D
:10467C000D4BB362A389206043F08003A381009BA0
:10468C0020616361019B5BB13046B4F90E1000F000
:10469C0093F828B1A38923F0030343F00103A3810A
:1046AC00A0890543A581CDE735390008034610B52F
:1046BC00C9B202449342184601D1002003E00478A9
:1046CC0001338C42F6D110BD0148FFF7FFB900BF92
:1046DC00A40100200148FFF7FAB900BFA401002093
:1046EC0038B50546002940D051F8043C0C1F002B6E
:1046FC00B8BFE418FFF7E8FF1C4A136833B96360CE
:10470C0014602846BDE83840FFF7E4BFA34208D93F
:10471C00206821188B4201BF19685B680918216059
:10472C00EDE71A465B680BB1A342FAD91168501831
:10473C00A0420BD120680144501883421160E0D193
:10474C0018685B68014411605360DAE702D90C23E6
:10475C002B60D6E7206821188B4201BF19685B6873
:10476C000918216063605460CBE738BDA8010020B4
:10477C0038B50446084611460022054D2A601A46F3
:10478C00FCF7ECF9431C02D12B6803B1236038BD54
:10479C00B001002038B50023064D044608461146EA
:1047AC002B60FCF703FA431C02D12B6803B1236086
:1047BC0038BD00BFB001002038B50023054D0446BC
:1047CC0008462B60FCF701FA431C02D12B6803B19D
:1047DC00236038BDB0010020F8B500BFF8BC08BCA0
:1047EC009E467047F8B500BFF8BC08BC9E467047A3
:1047FC00416D6F756E74206F6620706F74732064DA
:10480C00657465637465643A202564200D0A0000A4
:10481C000404040303030303020202020201010164
:10482C00010105050505050404000000030405014C
:10483C00020304050102030405010203040501023D
:10484C0003040501020000006061626300000000C7
:10485C000000000001020304060708090000000024
:10486C000102030402030405060708090A0B0C0DD8
:10487C000E0F1010010200000203040506070809C0
:10488C000A0B0C0D0E0F101001020000100000207E
:10489C00000000000000000000000000000000000C
:1048AC0000000000000000000000000000000000FC
:1048BC0000000000000000000000000000000000EC
:1048CC0000000000000000000000000000000000DC
:1048DC0000000000000000000000000000000000CC
:1048EC0000000000000000000000000000000000BC
:1048FC00232D302B2000686C4C00656667454647BD
:10490C00003031323334353637383941424344453F
:10491C0046003031323334353637383961626364AE
:04492C0065660000BC
:044930003101000849
:044934000D01000869
:104938000024F40010000000010000001000002016
:1049480000000000BC480008DC4800089C4800083B
:10495800000000000000000000000000000000004F
:10496800000000000000000000000000000000003F
:10497800000000000000000000000000000000002F
:10498800000000000000000000000000000000001F
:10499800000000000000000000000000000000000F
:0400000508000C7D66
:00000001FF
